{
  "contractName": "HymanTokenTest2",
  "abi": [
    {
      "inputs": [],
      "stateMutability": "nonpayable",
      "type": "constructor"
    },
    {
      "anonymous": false,
      "inputs": [
        {
          "indexed": true,
          "internalType": "address",
          "name": "owner",
          "type": "address"
        },
        {
          "indexed": true,
          "internalType": "address",
          "name": "approved",
          "type": "address"
        },
        {
          "indexed": true,
          "internalType": "uint256",
          "name": "tokenId",
          "type": "uint256"
        }
      ],
      "name": "Approval",
      "type": "event"
    },
    {
      "anonymous": false,
      "inputs": [
        {
          "indexed": true,
          "internalType": "address",
          "name": "owner",
          "type": "address"
        },
        {
          "indexed": true,
          "internalType": "address",
          "name": "operator",
          "type": "address"
        },
        {
          "indexed": false,
          "internalType": "bool",
          "name": "approved",
          "type": "bool"
        }
      ],
      "name": "ApprovalForAll",
      "type": "event"
    },
    {
      "anonymous": false,
      "inputs": [
        {
          "indexed": true,
          "internalType": "address",
          "name": "previousOwner",
          "type": "address"
        },
        {
          "indexed": true,
          "internalType": "address",
          "name": "newOwner",
          "type": "address"
        }
      ],
      "name": "OwnershipTransferred",
      "type": "event"
    },
    {
      "anonymous": false,
      "inputs": [
        {
          "indexed": false,
          "internalType": "address",
          "name": "account",
          "type": "address"
        }
      ],
      "name": "Paused",
      "type": "event"
    },
    {
      "anonymous": false,
      "inputs": [
        {
          "indexed": true,
          "internalType": "address",
          "name": "from",
          "type": "address"
        },
        {
          "indexed": true,
          "internalType": "address",
          "name": "to",
          "type": "address"
        },
        {
          "indexed": true,
          "internalType": "uint256",
          "name": "tokenId",
          "type": "uint256"
        }
      ],
      "name": "Transfer",
      "type": "event"
    },
    {
      "anonymous": false,
      "inputs": [
        {
          "indexed": false,
          "internalType": "address",
          "name": "account",
          "type": "address"
        }
      ],
      "name": "Unpaused",
      "type": "event"
    },
    {
      "inputs": [
        {
          "internalType": "address",
          "name": "to",
          "type": "address"
        },
        {
          "internalType": "uint256",
          "name": "tokenId",
          "type": "uint256"
        }
      ],
      "name": "approve",
      "outputs": [],
      "stateMutability": "nonpayable",
      "type": "function"
    },
    {
      "inputs": [
        {
          "internalType": "address",
          "name": "owner",
          "type": "address"
        }
      ],
      "name": "balanceOf",
      "outputs": [
        {
          "internalType": "uint256",
          "name": "",
          "type": "uint256"
        }
      ],
      "stateMutability": "view",
      "type": "function",
      "constant": true
    },
    {
      "inputs": [
        {
          "internalType": "uint256",
          "name": "tokenId",
          "type": "uint256"
        }
      ],
      "name": "burn",
      "outputs": [],
      "stateMutability": "nonpayable",
      "type": "function"
    },
    {
      "inputs": [
        {
          "internalType": "uint256",
          "name": "tokenId",
          "type": "uint256"
        }
      ],
      "name": "getApproved",
      "outputs": [
        {
          "internalType": "address",
          "name": "",
          "type": "address"
        }
      ],
      "stateMutability": "view",
      "type": "function",
      "constant": true
    },
    {
      "inputs": [
        {
          "internalType": "address",
          "name": "owner",
          "type": "address"
        },
        {
          "internalType": "address",
          "name": "operator",
          "type": "address"
        }
      ],
      "name": "isApprovedForAll",
      "outputs": [
        {
          "internalType": "bool",
          "name": "",
          "type": "bool"
        }
      ],
      "stateMutability": "view",
      "type": "function",
      "constant": true
    },
    {
      "inputs": [],
      "name": "name",
      "outputs": [
        {
          "internalType": "string",
          "name": "",
          "type": "string"
        }
      ],
      "stateMutability": "view",
      "type": "function",
      "constant": true
    },
    {
      "inputs": [],
      "name": "owner",
      "outputs": [
        {
          "internalType": "address",
          "name": "",
          "type": "address"
        }
      ],
      "stateMutability": "view",
      "type": "function",
      "constant": true
    },
    {
      "inputs": [
        {
          "internalType": "uint256",
          "name": "tokenId",
          "type": "uint256"
        }
      ],
      "name": "ownerOf",
      "outputs": [
        {
          "internalType": "address",
          "name": "",
          "type": "address"
        }
      ],
      "stateMutability": "view",
      "type": "function",
      "constant": true
    },
    {
      "inputs": [],
      "name": "paused",
      "outputs": [
        {
          "internalType": "bool",
          "name": "",
          "type": "bool"
        }
      ],
      "stateMutability": "view",
      "type": "function",
      "constant": true
    },
    {
      "inputs": [],
      "name": "renounceOwnership",
      "outputs": [],
      "stateMutability": "nonpayable",
      "type": "function"
    },
    {
      "inputs": [
        {
          "internalType": "address",
          "name": "from",
          "type": "address"
        },
        {
          "internalType": "address",
          "name": "to",
          "type": "address"
        },
        {
          "internalType": "uint256",
          "name": "tokenId",
          "type": "uint256"
        }
      ],
      "name": "safeTransferFrom",
      "outputs": [],
      "stateMutability": "nonpayable",
      "type": "function"
    },
    {
      "inputs": [
        {
          "internalType": "address",
          "name": "from",
          "type": "address"
        },
        {
          "internalType": "address",
          "name": "to",
          "type": "address"
        },
        {
          "internalType": "uint256",
          "name": "tokenId",
          "type": "uint256"
        },
        {
          "internalType": "bytes",
          "name": "_data",
          "type": "bytes"
        }
      ],
      "name": "safeTransferFrom",
      "outputs": [],
      "stateMutability": "nonpayable",
      "type": "function"
    },
    {
      "inputs": [
        {
          "internalType": "address",
          "name": "operator",
          "type": "address"
        },
        {
          "internalType": "bool",
          "name": "approved",
          "type": "bool"
        }
      ],
      "name": "setApprovalForAll",
      "outputs": [],
      "stateMutability": "nonpayable",
      "type": "function"
    },
    {
      "inputs": [],
      "name": "symbol",
      "outputs": [
        {
          "internalType": "string",
          "name": "",
          "type": "string"
        }
      ],
      "stateMutability": "view",
      "type": "function",
      "constant": true
    },
    {
      "inputs": [
        {
          "internalType": "uint256",
          "name": "index",
          "type": "uint256"
        }
      ],
      "name": "tokenByIndex",
      "outputs": [
        {
          "internalType": "uint256",
          "name": "",
          "type": "uint256"
        }
      ],
      "stateMutability": "view",
      "type": "function",
      "constant": true
    },
    {
      "inputs": [
        {
          "internalType": "address",
          "name": "owner",
          "type": "address"
        },
        {
          "internalType": "uint256",
          "name": "index",
          "type": "uint256"
        }
      ],
      "name": "tokenOfOwnerByIndex",
      "outputs": [
        {
          "internalType": "uint256",
          "name": "",
          "type": "uint256"
        }
      ],
      "stateMutability": "view",
      "type": "function",
      "constant": true
    },
    {
      "inputs": [],
      "name": "totalSupply",
      "outputs": [
        {
          "internalType": "uint256",
          "name": "",
          "type": "uint256"
        }
      ],
      "stateMutability": "view",
      "type": "function",
      "constant": true
    },
    {
      "inputs": [
        {
          "internalType": "address",
          "name": "from",
          "type": "address"
        },
        {
          "internalType": "address",
          "name": "to",
          "type": "address"
        },
        {
          "internalType": "uint256",
          "name": "tokenId",
          "type": "uint256"
        }
      ],
      "name": "transferFrom",
      "outputs": [],
      "stateMutability": "nonpayable",
      "type": "function"
    },
    {
      "inputs": [
        {
          "internalType": "address",
          "name": "newOwner",
          "type": "address"
        }
      ],
      "name": "transferOwnership",
      "outputs": [],
      "stateMutability": "nonpayable",
      "type": "function"
    },
    {
      "inputs": [],
      "name": "pause",
      "outputs": [],
      "stateMutability": "nonpayable",
      "type": "function"
    },
    {
      "inputs": [],
      "name": "unpause",
      "outputs": [],
      "stateMutability": "nonpayable",
      "type": "function"
    },
    {
      "inputs": [],
      "name": "adminMint",
      "outputs": [],
      "stateMutability": "nonpayable",
      "type": "function"
    },
    {
      "inputs": [],
      "name": "userMint",
      "outputs": [],
      "stateMutability": "payable",
      "type": "function",
      "payable": true
    },
    {
      "inputs": [
        {
          "internalType": "uint256",
          "name": "tokenId",
          "type": "uint256"
        }
      ],
      "name": "tokenURI",
      "outputs": [
        {
          "internalType": "string",
          "name": "",
          "type": "string"
        }
      ],
      "stateMutability": "view",
      "type": "function",
      "constant": true
    },
    {
      "inputs": [
        {
          "internalType": "bytes4",
          "name": "interfaceId",
          "type": "bytes4"
        }
      ],
      "name": "supportsInterface",
      "outputs": [
        {
          "internalType": "bool",
          "name": "",
          "type": "bool"
        }
      ],
      "stateMutability": "view",
      "type": "function",
      "constant": true
    }
  ],
  "bytecode": "0x60806040523480156200001157600080fd5b506040518060400160405280600f81526020017f48796d616e546f6b656e546573743200000000000000000000000000000000008152506040518060400160405280600381526020017f4854320000000000000000000000000000000000000000000000000000000000815250816000908051906020019062000096929190620001c1565b508060019080519060200190620000af929190620001c1565b5050506000600b60006101000a81548160ff021916908315150217905550620000ed620000e1620000f360201b60201c565b620000fb60201b60201c565b620002d6565b600033905090565b6000600b60019054906101000a900473ffffffffffffffffffffffffffffffffffffffff16905081600b60016101000a81548173ffffffffffffffffffffffffffffffffffffffff021916908373ffffffffffffffffffffffffffffffffffffffff1602179055508173ffffffffffffffffffffffffffffffffffffffff168173ffffffffffffffffffffffffffffffffffffffff167f8be0079c531659141344cd1fd0a4f28419497f9722a3daafe3b4186f6b6457e060405160405180910390a35050565b828054620001cf90620002a0565b90600052602060002090601f016020900481019282620001f357600085556200023f565b82601f106200020e57805160ff19168380011785556200023f565b828001600101855582156200023f579182015b828111156200023e57825182559160200191906001019062000221565b5b5090506200024e919062000252565b5090565b5b808211156200026d57600081600090555060010162000253565b5090565b7f4e487b7100000000000000000000000000000000000000000000000000000000600052602260045260246000fd5b60006002820490506001821680620002b957607f821691505b60208210811415620002d057620002cf62000271565b5b50919050565b613e7780620002e66000396000f3fe6080604052600436106101665760003560e01c80636352211e116100d157806395d89b411161008a578063c87b56dd11610064578063c87b56dd14610502578063df8f460f1461053f578063e985e9c514610549578063f2fde38b1461058657610166565b806395d89b4114610485578063a22cb465146104b0578063b88d4fde146104d957610166565b80636352211e1461039b57806370a08231146103d8578063715018a6146104155780638456cb591461042c578063895fc788146104435780638da5cb5b1461045a57610166565b80632f745c59116101235780632f745c591461028d5780633f4ba83a146102ca57806342842e0e146102e157806342966c681461030a5780634f6ccce7146103335780635c975abb1461037057610166565b806301ffc9a71461016b57806306fdde03146101a8578063081812fc146101d3578063095ea7b31461021057806318160ddd1461023957806323b872dd14610264575b600080fd5b34801561017757600080fd5b50610192600480360381019061018d9190612917565b6105af565b60405161019f919061295f565b60405180910390f35b3480156101b457600080fd5b506101bd6105c1565b6040516101ca9190612a13565b60405180910390f35b3480156101df57600080fd5b506101fa60048036038101906101f59190612a6b565b610653565b6040516102079190612ad9565b60405180910390f35b34801561021c57600080fd5b5061023760048036038101906102329190612b20565b6106d8565b005b34801561024557600080fd5b5061024e6107f0565b60405161025b9190612b6f565b60405180910390f35b34801561027057600080fd5b5061028b60048036038101906102869190612b8a565b6107fd565b005b34801561029957600080fd5b506102b460048036038101906102af9190612b20565b61085d565b6040516102c19190612b6f565b60405180910390f35b3480156102d657600080fd5b506102df610902565b005b3480156102ed57600080fd5b5061030860048036038101906103039190612b8a565b610988565b005b34801561031657600080fd5b50610331600480360381019061032c9190612a6b565b6109a8565b005b34801561033f57600080fd5b5061035a60048036038101906103559190612a6b565b610a04565b6040516103679190612b6f565b60405180910390f35b34801561037c57600080fd5b50610385610a75565b604051610392919061295f565b60405180910390f35b3480156103a757600080fd5b506103c260048036038101906103bd9190612a6b565b610a8c565b6040516103cf9190612ad9565b60405180910390f35b3480156103e457600080fd5b506103ff60048036038101906103fa9190612bdd565b610b3e565b60405161040c9190612b6f565b60405180910390f35b34801561042157600080fd5b5061042a610bf6565b005b34801561043857600080fd5b50610441610c7e565b005b34801561044f57600080fd5b50610458610d04565b005b34801561046657600080fd5b5061046f610da5565b60405161047c9190612ad9565b60405180910390f35b34801561049157600080fd5b5061049a610dcf565b6040516104a79190612a13565b60405180910390f35b3480156104bc57600080fd5b506104d760048036038101906104d29190612c36565b610e61565b005b3480156104e557600080fd5b5061050060048036038101906104fb9190612dab565b610e77565b005b34801561050e57600080fd5b5061052960048036038101906105249190612a6b565b610ed9565b6040516105369190612a13565b60405180910390f35b610547610eeb565b005b34801561055557600080fd5b50610570600480360381019061056b9190612e2e565b610f5a565b60405161057d919061295f565b60405180910390f35b34801561059257600080fd5b506105ad60048036038101906105a89190612bdd565b610fee565b005b60006105ba826110e6565b9050919050565b6060600080546105d090612e9d565b80601f01602080910402602001604051908101604052809291908181526020018280546105fc90612e9d565b80156106495780601f1061061e57610100808354040283529160200191610649565b820191906000526020600020905b81548152906001019060200180831161062c57829003601f168201915b5050505050905090565b600061065e82611160565b61069d576040517f08c379a000000000000000000000000000000000000000000000000000000000815260040161069490612f41565b60405180910390fd5b6004600083815260200190815260200160002060009054906101000a900473ffffffffffffffffffffffffffffffffffffffff169050919050565b60006106e382610a8c565b90508073ffffffffffffffffffffffffffffffffffffffff168373ffffffffffffffffffffffffffffffffffffffff161415610754576040517f08c379a000000000000000000000000000000000000000000000000000000000815260040161074b90612fd3565b60405180910390fd5b8073ffffffffffffffffffffffffffffffffffffffff166107736111cc565b73ffffffffffffffffffffffffffffffffffffffff1614806107a257506107a18161079c6111cc565b610f5a565b5b6107e1576040517f08c379a00000000000000000000000000000000000000000000000000000000081526004016107d890613065565b60405180910390fd5b6107eb83836111d4565b505050565b6000600880549050905090565b61080e6108086111cc565b8261128d565b61084d576040517f08c379a0000000000000000000000000000000000000000000000000000000008152600401610844906130f7565b60405180910390fd5b61085883838361136b565b505050565b600061086883610b3e565b82106108a9576040517f08c379a00000000000000000000000000000000000000000000000000000000081526004016108a090613189565b60405180910390fd5b600660008473ffffffffffffffffffffffffffffffffffffffff1673ffffffffffffffffffffffffffffffffffffffff168152602001908152602001600020600083815260200190815260200160002054905092915050565b61090a6111cc565b73ffffffffffffffffffffffffffffffffffffffff16610928610da5565b73ffffffffffffffffffffffffffffffffffffffff161461097e576040517f08c379a0000000000000000000000000000000000000000000000000000000008152600401610975906131f5565b60405180910390fd5b6109866115c7565b565b6109a383838360405180602001604052806000815250610e77565b505050565b6109b96109b36111cc565b8261128d565b6109f8576040517f08c379a00000000000000000000000000000000000000000000000000000000081526004016109ef90613287565b60405180910390fd5b610a0181611669565b50565b6000610a0e6107f0565b8210610a4f576040517f08c379a0000000000000000000000000000000000000000000000000000000008152600401610a4690613319565b60405180910390fd5b60088281548110610a6357610a62613339565b5b90600052602060002001549050919050565b6000600b60009054906101000a900460ff16905090565b6000806002600084815260200190815260200160002060009054906101000a900473ffffffffffffffffffffffffffffffffffffffff169050600073ffffffffffffffffffffffffffffffffffffffff168173ffffffffffffffffffffffffffffffffffffffff161415610b35576040517f08c379a0000000000000000000000000000000000000000000000000000000008152600401610b2c906133da565b60405180910390fd5b80915050919050565b60008073ffffffffffffffffffffffffffffffffffffffff168273ffffffffffffffffffffffffffffffffffffffff161415610baf576040517f08c379a0000000000000000000000000000000000000000000000000000000008152600401610ba69061346c565b60405180910390fd5b600360008373ffffffffffffffffffffffffffffffffffffffff1673ffffffffffffffffffffffffffffffffffffffff168152602001908152602001600020549050919050565b610bfe6111cc565b73ffffffffffffffffffffffffffffffffffffffff16610c1c610da5565b73ffffffffffffffffffffffffffffffffffffffff1614610c72576040517f08c379a0000000000000000000000000000000000000000000000000000000008152600401610c69906131f5565b60405180910390fd5b610c7c6000611675565b565b610c866111cc565b73ffffffffffffffffffffffffffffffffffffffff16610ca4610da5565b73ffffffffffffffffffffffffffffffffffffffff1614610cfa576040517f08c379a0000000000000000000000000000000000000000000000000000000008152600401610cf1906131f5565b60405180910390fd5b610d0261173b565b565b610d0c6111cc565b73ffffffffffffffffffffffffffffffffffffffff16610d2a610da5565b73ffffffffffffffffffffffffffffffffffffffff1614610d80576040517f08c379a0000000000000000000000000000000000000000000000000000000008152600401610d77906131f5565b60405180910390fd5b6000610d8c600c6117de565b9050610d98600c6117ec565b610da23382611802565b50565b6000600b60019054906101000a900473ffffffffffffffffffffffffffffffffffffffff16905090565b606060018054610dde90612e9d565b80601f0160208091040260200160405190810160405280929190818152602001828054610e0a90612e9d565b8015610e575780601f10610e2c57610100808354040283529160200191610e57565b820191906000526020600020905b815481529060010190602001808311610e3a57829003601f168201915b5050505050905090565b610e73610e6c6111cc565b8383611820565b5050565b610e88610e826111cc565b8361128d565b610ec7576040517f08c379a0000000000000000000000000000000000000000000000000000000008152600401610ebe906130f7565b60405180910390fd5b610ed38484848461198d565b50505050565b6060610ee4826119e9565b9050919050565b67016345785d8a00003414610f35576040517f08c379a0000000000000000000000000000000000000000000000000000000008152600401610f2c906134d8565b60405180910390fd5b6000610f41600c6117de565b9050610f4d600c6117ec565b610f573382611802565b50565b6000600560008473ffffffffffffffffffffffffffffffffffffffff1673ffffffffffffffffffffffffffffffffffffffff16815260200190815260200160002060008373ffffffffffffffffffffffffffffffffffffffff1673ffffffffffffffffffffffffffffffffffffffff16815260200190815260200160002060009054906101000a900460ff16905092915050565b610ff66111cc565b73ffffffffffffffffffffffffffffffffffffffff16611014610da5565b73ffffffffffffffffffffffffffffffffffffffff161461106a576040517f08c379a0000000000000000000000000000000000000000000000000000000008152600401611061906131f5565b60405180910390fd5b600073ffffffffffffffffffffffffffffffffffffffff168173ffffffffffffffffffffffffffffffffffffffff1614156110da576040517f08c379a00000000000000000000000000000000000000000000000000000000081526004016110d19061356a565b60405180910390fd5b6110e381611675565b50565b60007f780e9d63000000000000000000000000000000000000000000000000000000007bffffffffffffffffffffffffffffffffffffffffffffffffffffffff1916827bffffffffffffffffffffffffffffffffffffffffffffffffffffffff19161480611159575061115882611b3b565b5b9050919050565b60008073ffffffffffffffffffffffffffffffffffffffff166002600084815260200190815260200160002060009054906101000a900473ffffffffffffffffffffffffffffffffffffffff1673ffffffffffffffffffffffffffffffffffffffff1614159050919050565b600033905090565b816004600083815260200190815260200160002060006101000a81548173ffffffffffffffffffffffffffffffffffffffff021916908373ffffffffffffffffffffffffffffffffffffffff160217905550808273ffffffffffffffffffffffffffffffffffffffff1661124783610a8c565b73ffffffffffffffffffffffffffffffffffffffff167f8c5be1e5ebec7d5bd14f71427d1e84f3dd0314c0f7b2291e5b200ac8c7c3b92560405160405180910390a45050565b600061129882611160565b6112d7576040517f08c379a00000000000000000000000000000000000000000000000000000000081526004016112ce906135fc565b60405180910390fd5b60006112e283610a8c565b90508073ffffffffffffffffffffffffffffffffffffffff168473ffffffffffffffffffffffffffffffffffffffff16148061135157508373ffffffffffffffffffffffffffffffffffffffff1661133984610653565b73ffffffffffffffffffffffffffffffffffffffff16145b8061136257506113618185610f5a565b5b91505092915050565b8273ffffffffffffffffffffffffffffffffffffffff1661138b82610a8c565b73ffffffffffffffffffffffffffffffffffffffff16146113e1576040517f08c379a00000000000000000000000000000000000000000000000000000000081526004016113d89061368e565b60405180910390fd5b600073ffffffffffffffffffffffffffffffffffffffff168273ffffffffffffffffffffffffffffffffffffffff161415611451576040517f08c379a000000000000000000000000000000000000000000000000000000000815260040161144890613720565b60405180910390fd5b61145c838383611c1d565b6114676000826111d4565b6001600360008573ffffffffffffffffffffffffffffffffffffffff1673ffffffffffffffffffffffffffffffffffffffff16815260200190815260200160002060008282546114b7919061376f565b925050819055506001600360008473ffffffffffffffffffffffffffffffffffffffff1673ffffffffffffffffffffffffffffffffffffffff168152602001908152602001600020600082825461150e91906137a3565b92505081905550816002600083815260200190815260200160002060006101000a81548173ffffffffffffffffffffffffffffffffffffffff021916908373ffffffffffffffffffffffffffffffffffffffff160217905550808273ffffffffffffffffffffffffffffffffffffffff168473ffffffffffffffffffffffffffffffffffffffff167fddf252ad1be2c89b69c2b068fc378daa952ba7f163c4a11628f55a4df523b3ef60405160405180910390a4505050565b6115cf610a75565b61160e576040517f08c379a000000000000000000000000000000000000000000000000000000000815260040161160590613845565b60405180910390fd5b6000600b60006101000a81548160ff0219169083151502179055507f5db9ee0a495bf2e6ff9c91a7834c1ba4fdd244a5e8aa4e537bd38aeae4b073aa6116526111cc565b60405161165f9190612ad9565b60405180910390a1565b61167281611c75565b50565b6000600b60019054906101000a900473ffffffffffffffffffffffffffffffffffffffff16905081600b60016101000a81548173ffffffffffffffffffffffffffffffffffffffff021916908373ffffffffffffffffffffffffffffffffffffffff1602179055508173ffffffffffffffffffffffffffffffffffffffff168173ffffffffffffffffffffffffffffffffffffffff167f8be0079c531659141344cd1fd0a4f28419497f9722a3daafe3b4186f6b6457e060405160405180910390a35050565b611743610a75565b15611783576040517f08c379a000000000000000000000000000000000000000000000000000000000815260040161177a906138b1565b60405180910390fd5b6001600b60006101000a81548160ff0219169083151502179055507f62e78cea01bee320cd4e420270b5ea74000d11b0c9f74754ebdbfc544b05a2586117c76111cc565b6040516117d49190612ad9565b60405180910390a1565b600081600001549050919050565b6001816000016000828254019250508190555050565b61181c828260405180602001604052806000815250611cc8565b5050565b8173ffffffffffffffffffffffffffffffffffffffff168373ffffffffffffffffffffffffffffffffffffffff16141561188f576040517f08c379a00000000000000000000000000000000000000000000000000000000081526004016118869061391d565b60405180910390fd5b80600560008573ffffffffffffffffffffffffffffffffffffffff1673ffffffffffffffffffffffffffffffffffffffff16815260200190815260200160002060008473ffffffffffffffffffffffffffffffffffffffff1673ffffffffffffffffffffffffffffffffffffffff16815260200190815260200160002060006101000a81548160ff0219169083151502179055508173ffffffffffffffffffffffffffffffffffffffff168373ffffffffffffffffffffffffffffffffffffffff167f17307eab39ab6107e8899845ad3d59bd9653f200f220920489ca2b5937696c3183604051611980919061295f565b60405180910390a3505050565b61199884848461136b565b6119a484848484611d23565b6119e3576040517f08c379a00000000000000000000000000000000000000000000000000000000081526004016119da906139af565b60405180910390fd5b50505050565b60606119f482611160565b611a33576040517f08c379a0000000000000000000000000000000000000000000000000000000008152600401611a2a90613a41565b60405180910390fd5b6000600a60008481526020019081526020016000208054611a5390612e9d565b80601f0160208091040260200160405190810160405280929190818152602001828054611a7f90612e9d565b8015611acc5780601f10611aa157610100808354040283529160200191611acc565b820191906000526020600020905b815481529060010190602001808311611aaf57829003601f168201915b505050505090506000611add611eab565b9050600081511415611af3578192505050611b36565b600082511115611b28578082604051602001611b10929190613a9d565b60405160208183030381529060405292505050611b36565b611b3184611ecb565b925050505b919050565b60007f80ac58cd000000000000000000000000000000000000000000000000000000007bffffffffffffffffffffffffffffffffffffffffffffffffffffffff1916827bffffffffffffffffffffffffffffffffffffffffffffffffffffffff19161480611c0657507f5b5e139f000000000000000000000000000000000000000000000000000000007bffffffffffffffffffffffffffffffffffffffffffffffffffffffff1916827bffffffffffffffffffffffffffffffffffffffffffffffffffffffff1916145b80611c165750611c1582611f72565b5b9050919050565b611c25610a75565b15611c65576040517f08c379a0000000000000000000000000000000000000000000000000000000008152600401611c5c906138b1565b60405180910390fd5b611c70838383611fdc565b505050565b611c7e816120f0565b6000600a60008381526020019081526020016000208054611c9e90612e9d565b905014611cc557600a60008281526020019081526020016000206000611cc4919061284e565b5b50565b611cd28383612201565b611cdf6000848484611d23565b611d1e576040517f08c379a0000000000000000000000000000000000000000000000000000000008152600401611d15906139af565b60405180910390fd5b505050565b6000611d448473ffffffffffffffffffffffffffffffffffffffff166123cf565b15611e9e578373ffffffffffffffffffffffffffffffffffffffff1663150b7a02611d6d6111cc565b8786866040518563ffffffff1660e01b8152600401611d8f9493929190613b16565b6020604051808303816000875af1925050508015611dcb57506040513d601f19601f82011682018060405250810190611dc89190613b77565b60015b611e4e573d8060008114611dfb576040519150601f19603f3d011682016040523d82523d6000602084013e611e00565b606091505b50600081511415611e46576040517f08c379a0000000000000000000000000000000000000000000000000000000008152600401611e3d906139af565b60405180910390fd5b805181602001fd5b63150b7a0260e01b7bffffffffffffffffffffffffffffffffffffffffffffffffffffffff1916817bffffffffffffffffffffffffffffffffffffffffffffffffffffffff191614915050611ea3565b600190505b949350505050565b60606040518060600160405280602a8152602001613e18602a9139905090565b6060611ed682611160565b611f15576040517f08c379a0000000000000000000000000000000000000000000000000000000008152600401611f0c90613c16565b60405180910390fd5b6000611f1f611eab565b90506000815111611f3f5760405180602001604052806000815250611f6a565b80611f49846123e2565b604051602001611f5a929190613a9d565b6040516020818303038152906040525b915050919050565b60007f01ffc9a7000000000000000000000000000000000000000000000000000000007bffffffffffffffffffffffffffffffffffffffffffffffffffffffff1916827bffffffffffffffffffffffffffffffffffffffffffffffffffffffff1916149050919050565b611fe7838383612543565b600073ffffffffffffffffffffffffffffffffffffffff168373ffffffffffffffffffffffffffffffffffffffff16141561202a5761202581612548565b612069565b8173ffffffffffffffffffffffffffffffffffffffff168373ffffffffffffffffffffffffffffffffffffffff1614612068576120678382612591565b5b5b600073ffffffffffffffffffffffffffffffffffffffff168273ffffffffffffffffffffffffffffffffffffffff1614156120ac576120a7816126fe565b6120eb565b8273ffffffffffffffffffffffffffffffffffffffff168273ffffffffffffffffffffffffffffffffffffffff16146120ea576120e982826127cf565b5b5b505050565b60006120fb82610a8c565b905061210981600084611c1d565b6121146000836111d4565b6001600360008373ffffffffffffffffffffffffffffffffffffffff1673ffffffffffffffffffffffffffffffffffffffff1681526020019081526020016000206000828254612164919061376f565b925050819055506002600083815260200190815260200160002060006101000a81549073ffffffffffffffffffffffffffffffffffffffff021916905581600073ffffffffffffffffffffffffffffffffffffffff168273ffffffffffffffffffffffffffffffffffffffff167fddf252ad1be2c89b69c2b068fc378daa952ba7f163c4a11628f55a4df523b3ef60405160405180910390a45050565b600073ffffffffffffffffffffffffffffffffffffffff168273ffffffffffffffffffffffffffffffffffffffff161415612271576040517f08c379a000000000000000000000000000000000000000000000000000000000815260040161226890613c82565b60405180910390fd5b61227a81611160565b156122ba576040517f08c379a00000000000000000000000000000000000000000000000000000000081526004016122b190613cee565b60405180910390fd5b6122c660008383611c1d565b6001600360008473ffffffffffffffffffffffffffffffffffffffff1673ffffffffffffffffffffffffffffffffffffffff168152602001908152602001600020600082825461231691906137a3565b92505081905550816002600083815260200190815260200160002060006101000a81548173ffffffffffffffffffffffffffffffffffffffff021916908373ffffffffffffffffffffffffffffffffffffffff160217905550808273ffffffffffffffffffffffffffffffffffffffff16600073ffffffffffffffffffffffffffffffffffffffff167fddf252ad1be2c89b69c2b068fc378daa952ba7f163c4a11628f55a4df523b3ef60405160405180910390a45050565b600080823b905060008111915050919050565b6060600082141561242a576040518060400160405280600181526020017f3000000000000000000000000000000000000000000000000000000000000000815250905061253e565b600082905060005b6000821461245c57808061244590613d0e565b915050600a826124559190613d86565b9150612432565b60008167ffffffffffffffff81111561247857612477612c80565b5b6040519080825280601f01601f1916602001820160405280156124aa5781602001600182028036833780820191505090505b5090505b60008514612537576001826124c3919061376f565b9150600a856124d29190613db7565b60306124de91906137a3565b60f81b8183815181106124f4576124f3613339565b5b60200101907effffffffffffffffffffffffffffffffffffffffffffffffffffffffffffff1916908160001a905350600a856125309190613d86565b94506124ae565b8093505050505b919050565b505050565b6008805490506009600083815260200190815260200160002081905550600881908060018154018082558091505060019003906000526020600020016000909190919091505550565b6000600161259e84610b3e565b6125a8919061376f565b905060006007600084815260200190815260200160002054905081811461268d576000600660008673ffffffffffffffffffffffffffffffffffffffff1673ffffffffffffffffffffffffffffffffffffffff168152602001908152602001600020600084815260200190815260200160002054905080600660008773ffffffffffffffffffffffffffffffffffffffff1673ffffffffffffffffffffffffffffffffffffffff168152602001908152602001600020600084815260200190815260200160002081905550816007600083815260200190815260200160002081905550505b6007600084815260200190815260200160002060009055600660008573ffffffffffffffffffffffffffffffffffffffff1673ffffffffffffffffffffffffffffffffffffffff16815260200190815260200160002060008381526020019081526020016000206000905550505050565b60006001600880549050612712919061376f565b905060006009600084815260200190815260200160002054905060006008838154811061274257612741613339565b5b90600052602060002001549050806008838154811061276457612763613339565b5b9060005260206000200181905550816009600083815260200190815260200160002081905550600960008581526020019081526020016000206000905560088054806127b3576127b2613de8565b5b6001900381819060005260206000200160009055905550505050565b60006127da83610b3e565b905081600660008573ffffffffffffffffffffffffffffffffffffffff1673ffffffffffffffffffffffffffffffffffffffff168152602001908152602001600020600083815260200190815260200160002081905550806007600084815260200190815260200160002081905550505050565b50805461285a90612e9d565b6000825580601f1061286c575061288b565b601f01602090049060005260206000209081019061288a919061288e565b5b50565b5b808211156128a757600081600090555060010161288f565b5090565b6000604051905090565b600080fd5b600080fd5b60007fffffffff0000000000000000000000000000000000000000000000000000000082169050919050565b6128f4816128bf565b81146128ff57600080fd5b50565b600081359050612911816128eb565b92915050565b60006020828403121561292d5761292c6128b5565b5b600061293b84828501612902565b91505092915050565b60008115159050919050565b61295981612944565b82525050565b60006020820190506129746000830184612950565b92915050565b600081519050919050565b600082825260208201905092915050565b60005b838110156129b4578082015181840152602081019050612999565b838111156129c3576000848401525b50505050565b6000601f19601f8301169050919050565b60006129e58261297a565b6129ef8185612985565b93506129ff818560208601612996565b612a08816129c9565b840191505092915050565b60006020820190508181036000830152612a2d81846129da565b905092915050565b6000819050919050565b612a4881612a35565b8114612a5357600080fd5b50565b600081359050612a6581612a3f565b92915050565b600060208284031215612a8157612a806128b5565b5b6000612a8f84828501612a56565b91505092915050565b600073ffffffffffffffffffffffffffffffffffffffff82169050919050565b6000612ac382612a98565b9050919050565b612ad381612ab8565b82525050565b6000602082019050612aee6000830184612aca565b92915050565b612afd81612ab8565b8114612b0857600080fd5b50565b600081359050612b1a81612af4565b92915050565b60008060408385031215612b3757612b366128b5565b5b6000612b4585828601612b0b565b9250506020612b5685828601612a56565b9150509250929050565b612b6981612a35565b82525050565b6000602082019050612b846000830184612b60565b92915050565b600080600060608486031215612ba357612ba26128b5565b5b6000612bb186828701612b0b565b9350506020612bc286828701612b0b565b9250506040612bd386828701612a56565b9150509250925092565b600060208284031215612bf357612bf26128b5565b5b6000612c0184828501612b0b565b91505092915050565b612c1381612944565b8114612c1e57600080fd5b50565b600081359050612c3081612c0a565b92915050565b60008060408385031215612c4d57612c4c6128b5565b5b6000612c5b85828601612b0b565b9250506020612c6c85828601612c21565b9150509250929050565b600080fd5b600080fd5b7f4e487b7100000000000000000000000000000000000000000000000000000000600052604160045260246000fd5b612cb8826129c9565b810181811067ffffffffffffffff82111715612cd757612cd6612c80565b5b80604052505050565b6000612cea6128ab565b9050612cf68282612caf565b919050565b600067ffffffffffffffff821115612d1657612d15612c80565b5b612d1f826129c9565b9050602081019050919050565b82818337600083830152505050565b6000612d4e612d4984612cfb565b612ce0565b905082815260208101848484011115612d6a57612d69612c7b565b5b612d75848285612d2c565b509392505050565b600082601f830112612d9257612d91612c76565b5b8135612da2848260208601612d3b565b91505092915050565b60008060008060808587031215612dc557612dc46128b5565b5b6000612dd387828801612b0b565b9450506020612de487828801612b0b565b9350506040612df587828801612a56565b925050606085013567ffffffffffffffff811115612e1657612e156128ba565b5b612e2287828801612d7d565b91505092959194509250565b60008060408385031215612e4557612e446128b5565b5b6000612e5385828601612b0b565b9250506020612e6485828601612b0b565b9150509250929050565b7f4e487b7100000000000000000000000000000000000000000000000000000000600052602260045260246000fd5b60006002820490506001821680612eb557607f821691505b60208210811415612ec957612ec8612e6e565b5b50919050565b7f4552433732313a20617070726f76656420717565727920666f72206e6f6e657860008201527f697374656e7420746f6b656e0000000000000000000000000000000000000000602082015250565b6000612f2b602c83612985565b9150612f3682612ecf565b604082019050919050565b60006020820190508181036000830152612f5a81612f1e565b9050919050565b7f4552433732313a20617070726f76616c20746f2063757272656e74206f776e6560008201527f7200000000000000000000000000000000000000000000000000000000000000602082015250565b6000612fbd602183612985565b9150612fc882612f61565b604082019050919050565b60006020820190508181036000830152612fec81612fb0565b9050919050565b7f4552433732313a20617070726f76652063616c6c6572206973206e6f74206f7760008201527f6e6572206e6f7220617070726f76656420666f7220616c6c0000000000000000602082015250565b600061304f603883612985565b915061305a82612ff3565b604082019050919050565b6000602082019050818103600083015261307e81613042565b9050919050565b7f4552433732313a207472616e736665722063616c6c6572206973206e6f74206f60008201527f776e6572206e6f7220617070726f766564000000000000000000000000000000602082015250565b60006130e1603183612985565b91506130ec82613085565b604082019050919050565b60006020820190508181036000830152613110816130d4565b9050919050565b7f455243373231456e756d657261626c653a206f776e657220696e646578206f7560008201527f74206f6620626f756e6473000000000000000000000000000000000000000000602082015250565b6000613173602b83612985565b915061317e82613117565b604082019050919050565b600060208201905081810360008301526131a281613166565b9050919050565b7f4f776e61626c653a2063616c6c6572206973206e6f7420746865206f776e6572600082015250565b60006131df602083612985565b91506131ea826131a9565b602082019050919050565b6000602082019050818103600083015261320e816131d2565b9050919050565b7f4552433732314275726e61626c653a2063616c6c6572206973206e6f74206f7760008201527f6e6572206e6f7220617070726f76656400000000000000000000000000000000602082015250565b6000613271603083612985565b915061327c82613215565b604082019050919050565b600060208201905081810360008301526132a081613264565b9050919050565b7f455243373231456e756d657261626c653a20676c6f62616c20696e646578206f60008201527f7574206f6620626f756e64730000000000000000000000000000000000000000602082015250565b6000613303602c83612985565b915061330e826132a7565b604082019050919050565b60006020820190508181036000830152613332816132f6565b9050919050565b7f4e487b7100000000000000000000000000000000000000000000000000000000600052603260045260246000fd5b7f4552433732313a206f776e657220717565727920666f72206e6f6e657869737460008201527f656e7420746f6b656e0000000000000000000000000000000000000000000000602082015250565b60006133c4602983612985565b91506133cf82613368565b604082019050919050565b600060208201905081810360008301526133f3816133b7565b9050919050565b7f4552433732313a2062616c616e636520717565727920666f7220746865207a6560008201527f726f206164647265737300000000000000000000000000000000000000000000602082015250565b6000613456602a83612985565b9150613461826133fa565b604082019050919050565b6000602082019050818103600083015261348581613449565b9050919050565b7f706c656173652073656c65637420302e31206574686572000000000000000000600082015250565b60006134c2601783612985565b91506134cd8261348c565b602082019050919050565b600060208201905081810360008301526134f1816134b5565b9050919050565b7f4f776e61626c653a206e6577206f776e657220697320746865207a65726f206160008201527f6464726573730000000000000000000000000000000000000000000000000000602082015250565b6000613554602683612985565b915061355f826134f8565b604082019050919050565b6000602082019050818103600083015261358381613547565b9050919050565b7f4552433732313a206f70657261746f7220717565727920666f72206e6f6e657860008201527f697374656e7420746f6b656e0000000000000000000000000000000000000000602082015250565b60006135e6602c83612985565b91506135f18261358a565b604082019050919050565b60006020820190508181036000830152613615816135d9565b9050919050565b7f4552433732313a207472616e73666572206f6620746f6b656e2074686174206960008201527f73206e6f74206f776e0000000000000000000000000000000000000000000000602082015250565b6000613678602983612985565b91506136838261361c565b604082019050919050565b600060208201905081810360008301526136a78161366b565b9050919050565b7f4552433732313a207472616e7366657220746f20746865207a65726f2061646460008201527f7265737300000000000000000000000000000000000000000000000000000000602082015250565b600061370a602483612985565b9150613715826136ae565b604082019050919050565b60006020820190508181036000830152613739816136fd565b9050919050565b7f4e487b7100000000000000000000000000000000000000000000000000000000600052601160045260246000fd5b600061377a82612a35565b915061378583612a35565b92508282101561379857613797613740565b5b828203905092915050565b60006137ae82612a35565b91506137b983612a35565b9250827fffffffffffffffffffffffffffffffffffffffffffffffffffffffffffffffff038211156137ee576137ed613740565b5b828201905092915050565b7f5061757361626c653a206e6f7420706175736564000000000000000000000000600082015250565b600061382f601483612985565b915061383a826137f9565b602082019050919050565b6000602082019050818103600083015261385e81613822565b9050919050565b7f5061757361626c653a2070617573656400000000000000000000000000000000600082015250565b600061389b601083612985565b91506138a682613865565b602082019050919050565b600060208201905081810360008301526138ca8161388e565b9050919050565b7f4552433732313a20617070726f766520746f2063616c6c657200000000000000600082015250565b6000613907601983612985565b9150613912826138d1565b602082019050919050565b60006020820190508181036000830152613936816138fa565b9050919050565b7f4552433732313a207472616e7366657220746f206e6f6e20455243373231526560008201527f63656976657220696d706c656d656e7465720000000000000000000000000000602082015250565b6000613999603283612985565b91506139a48261393d565b604082019050919050565b600060208201905081810360008301526139c88161398c565b9050919050565b7f45524337323155524953746f726167653a2055524920717565727920666f722060008201527f6e6f6e6578697374656e7420746f6b656e000000000000000000000000000000602082015250565b6000613a2b603183612985565b9150613a36826139cf565b604082019050919050565b60006020820190508181036000830152613a5a81613a1e565b9050919050565b600081905092915050565b6000613a778261297a565b613a818185613a61565b9350613a91818560208601612996565b80840191505092915050565b6000613aa98285613a6c565b9150613ab58284613a6c565b91508190509392505050565b600081519050919050565b600082825260208201905092915050565b6000613ae882613ac1565b613af28185613acc565b9350613b02818560208601612996565b613b0b816129c9565b840191505092915050565b6000608082019050613b2b6000830187612aca565b613b386020830186612aca565b613b456040830185612b60565b8181036060830152613b578184613add565b905095945050505050565b600081519050613b71816128eb565b92915050565b600060208284031215613b8d57613b8c6128b5565b5b6000613b9b84828501613b62565b91505092915050565b7f4552433732314d657461646174613a2055524920717565727920666f72206e6f60008201527f6e6578697374656e7420746f6b656e0000000000000000000000000000000000602082015250565b6000613c00602f83612985565b9150613c0b82613ba4565b604082019050919050565b60006020820190508181036000830152613c2f81613bf3565b9050919050565b7f4552433732313a206d696e7420746f20746865207a65726f2061646472657373600082015250565b6000613c6c602083612985565b9150613c7782613c36565b602082019050919050565b60006020820190508181036000830152613c9b81613c5f565b9050919050565b7f4552433732313a20746f6b656e20616c7265616479206d696e74656400000000600082015250565b6000613cd8601c83612985565b9150613ce382613ca2565b602082019050919050565b60006020820190508181036000830152613d0781613ccb565b9050919050565b6000613d1982612a35565b91507fffffffffffffffffffffffffffffffffffffffffffffffffffffffffffffffff821415613d4c57613d4b613740565b5b600182019050919050565b7f4e487b7100000000000000000000000000000000000000000000000000000000600052601260045260246000fd5b6000613d9182612a35565b9150613d9c83612a35565b925082613dac57613dab613d57565b5b828204905092915050565b6000613dc282612a35565b9150613dcd83612a35565b925082613ddd57613ddc613d57565b5b828206905092915050565b7f4e487b7100000000000000000000000000000000000000000000000000000000600052603160045260246000fdfe68747470733a2f2f68796d616e2d6e66742e6865726f6b756170702e636f6d2f6170692f746f6b656e2fa26469706673582212204f762fb2bca7d702efefcbaf525a9233467c1443cc792a990693e896c9f4b57d64736f6c634300080a0033",
  "immutableReferences": {},
  "source": "// SPDX-License-Identifier: MIT\npragma solidity >=0.4.22 <0.9.0;\n\nimport \"@openzeppelin/contracts/token/ERC721/ERC721.sol\";\nimport \"@openzeppelin/contracts/token/ERC721/extensions/ERC721Enumerable.sol\";\nimport \"@openzeppelin/contracts/token/ERC721/extensions/ERC721URIStorage.sol\";\nimport \"@openzeppelin/contracts/security/Pausable.sol\";\nimport \"@openzeppelin/contracts/access/Ownable.sol\";\nimport \"@openzeppelin/contracts/token/ERC721/extensions/ERC721Burnable.sol\";\nimport \"@openzeppelin/contracts/utils/Counters.sol\";\n\ncontract HymanTokenTest2 is\n    ERC721,\n    ERC721Enumerable,\n    ERC721URIStorage,\n    Pausable,\n    Ownable,\n    ERC721Burnable\n{\n    using Counters for Counters.Counter;\n\n    Counters.Counter private _tokenIdCounter;\n\n    constructor() ERC721(\"HymanTokenTest2\", \"HT2\") {}\n\n    function _baseURI() internal pure override returns (string memory) {\n        return \"https://hyman-nft.herokuapp.com/api/token/\";\n    }\n\n    function pause() public onlyOwner {\n        _pause();\n    }\n\n    function unpause() public onlyOwner {\n        _unpause();\n    }\n\n    function adminMint() public onlyOwner {\n        uint256 tokenId = _tokenIdCounter.current();\n        _tokenIdCounter.increment();\n        _safeMint(msg.sender, tokenId);\n        // _setTokenURI(tokenId, uri);\n    }\n\n    function userMint() public payable {\n        require(msg.value == 0.1 ether, \"please select 0.1 ether\");\n        uint256 tokenId = _tokenIdCounter.current();\n        _tokenIdCounter.increment();\n        _safeMint(msg.sender, tokenId);\n    }\n\n    function _beforeTokenTransfer(\n        address from,\n        address to,\n        uint256 tokenId\n    ) internal override(ERC721, ERC721Enumerable) whenNotPaused {\n        super._beforeTokenTransfer(from, to, tokenId);\n    }\n\n    // The following functions are overrides required by Solidity.\n\n    function _burn(uint256 tokenId)\n        internal\n        override(ERC721, ERC721URIStorage)\n    {\n        super._burn(tokenId);\n    }\n\n    function tokenURI(uint256 tokenId)\n        public\n        view\n        override(ERC721, ERC721URIStorage)\n        returns (string memory)\n    {\n        return super.tokenURI(tokenId);\n    }\n\n    function supportsInterface(bytes4 interfaceId)\n        public\n        view\n        override(ERC721, ERC721Enumerable)\n        returns (bool)\n    {\n        return super.supportsInterface(interfaceId);\n    }\n}\n",
  "sourcePath": "/Users/chnbohwr/test/truffle-test-2/contracts/HymanTokenTest2.sol",
  "compiler": {
    "name": "solc",
    "version": "0.8.10+commit.fc410830.Emscripten.clang"
  },
  "schemaVersion": "3.4.3",
  "updatedAt": "2021-12-21T08:07:34.564Z",
  "networkType": "ethereum",
  "devdoc": {
    "kind": "dev",
    "methods": {
      "approve(address,uint256)": {
        "details": "See {IERC721-approve}."
      },
      "balanceOf(address)": {
        "details": "See {IERC721-balanceOf}."
      },
      "burn(uint256)": {
        "details": "Burns `tokenId`. See {ERC721-_burn}. Requirements: - The caller must own `tokenId` or be an approved operator."
      },
      "getApproved(uint256)": {
        "details": "See {IERC721-getApproved}."
      },
      "isApprovedForAll(address,address)": {
        "details": "See {IERC721-isApprovedForAll}."
      },
      "name()": {
        "details": "See {IERC721Metadata-name}."
      },
      "owner()": {
        "details": "Returns the address of the current owner."
      },
      "ownerOf(uint256)": {
        "details": "See {IERC721-ownerOf}."
      },
      "paused()": {
        "details": "Returns true if the contract is paused, and false otherwise."
      },
      "renounceOwnership()": {
        "details": "Leaves the contract without owner. It will not be possible to call `onlyOwner` functions anymore. Can only be called by the current owner. NOTE: Renouncing ownership will leave the contract without an owner, thereby removing any functionality that is only available to the owner."
      },
      "safeTransferFrom(address,address,uint256)": {
        "details": "See {IERC721-safeTransferFrom}."
      },
      "safeTransferFrom(address,address,uint256,bytes)": {
        "details": "See {IERC721-safeTransferFrom}."
      },
      "setApprovalForAll(address,bool)": {
        "details": "See {IERC721-setApprovalForAll}."
      },
      "symbol()": {
        "details": "See {IERC721Metadata-symbol}."
      },
      "tokenByIndex(uint256)": {
        "details": "See {IERC721Enumerable-tokenByIndex}."
      },
      "tokenOfOwnerByIndex(address,uint256)": {
        "details": "See {IERC721Enumerable-tokenOfOwnerByIndex}."
      },
      "totalSupply()": {
        "details": "See {IERC721Enumerable-totalSupply}."
      },
      "transferFrom(address,address,uint256)": {
        "details": "See {IERC721-transferFrom}."
      },
      "transferOwnership(address)": {
        "details": "Transfers ownership of the contract to a new account (`newOwner`). Can only be called by the current owner."
      }
    },
    "version": 1
  },
  "userdoc": {
    "kind": "user",
    "methods": {},
    "version": 1
  }
}